:020000020000FC
:060000000C943400000026
:060040000C9470000000AA
:10006800D1E0C0E000E10883C02EDF5F00E0088334
:10007800DF5F00E00883DF5F00E00883DF5F00E008
:100088000883DF5F00E00883DF5F00E00883DF5F4D
:1000980000E00883D75018E01EBF1FEF1DBF05E022
:1000A80005BD01E000936E0078945FE760E600917B
:1000B8007C000523062B00937C0067E800917A00FA
:1000C800062B00937A000FE007B90CEF0AB90FE38B
:1000D80004B930E00C94720031E01895313011F415
:1000E8000E947E000E9480000E9496000E94DB0011
:1000F8000C94720030E0089500917C0065E055EFA3
:10010800062B052300937C0060E400917A00062BFF
:1001180000937A0000917A0006FD0C948E0080917D
:1001280079000895813038F08E3F58F4913078F096
:100138009E3FA0F4089571E0C71601F1C6940C948F
:10014800BC0070E8C716D1F0CC0C0C94BC0078E069
:10015800B716A0F47FEFB71A0C94BC0070E0B7167E
:1001680068F071E0B71A0C94BC0070E178830895C8
:100178000E94C300DB0DC882DB190895089500E0D2
:100188000883DF5F00E00883DF5F00E00883DF5F4C
:1001980000E00883DF5F00E00883DF5F00E008839A
:1001A800DF5F00E00883DF5F00E00883089510E068
:1001B80021E050EC70E0088140E006FB47F907FBBE
:1001C80046F900FB45F901FB44F902FB43F903FB3F
:1001D80042F904FB41F905FB40F9E22ED42E4523F0
:1001E800F42E14301CF0E72E420FF42ED5B8E8B8E0
:1001F800FBB81F5FDF5F220F143011F42695269598
:0C0208001830CCF210E021E0D85008952E
:00000001FF
