:020000020000FC
:040000000C94340028
:10006800D1E0C0E00AE20883DF5F0AE20883DF5FCD
:100078000AE20883DF5F0AE20883DF5F0AE2088397
:10008800DF5F0AE20883DF5F0AE20883DF5F0AE2D4
:100098000883D1E0C0E018E01EBF1FEF1DBF0FE0CE
:1000A80007B90CEF0AB90FE304B930E010E021E01A
:1000B80060EC088150E05F5F000F47955930DCF332
:1000C80070E0740F770F770F28B975B976237BB96D
:1000D80014301CF038B9720F7BB91F5FDF5F220F35
:1000E800143011F42695269518301CF310E021E001
:0600F800D7500C945D00DE
:00000001FF
