:020000020000FC
:040000000C94340028
:10006800D1E0C0E001EC0883DF5F01EC0883DF5FCB
:1000780001EC0883DF5F01EC0883DF5F02EC088393
:10008800DF5F02EC0883DF5F02EC0883DF5F02ECCE
:100098000883D1E0C0E018E01EBF1FEF1DBF0FE0CE
:1000A80007B90CEF0AB90FE304B90FE305B930E05B
:1000B80010E021E0088128B93BB905B9143014F0E3
:1000C80038B92BB91F5FDF5F220F143011F4269562
:1000D800269518307CF310E021E0D7500C945E0090
:00000001FF
